S01500004C696E655F666F6C6C6F7765722E73726563BE
S11300000C942A000C9434000C9434000C943400A6
S11300100C9434000C9434000C9434000C9434008C
S11300200C9434000C9434000C9434000C9434007C
S11300300C9434000C9434000C9434000C9434006C
S11300400C9434000C9434000C9434000C9434005C
S11300500C94340011241FBECFE5D4E0DEBFCDBF25
S11300600E9436000C9452000C9400008FEF87BB62
S113007014BA2AE049E036E083B3857090E0853015
S1130080910511F428BBF8CF8130910511F438BBE8
S1130090F3CF8430910511F448BBEECF892B61F77F
S10B00A018BAEACFF894FFCF6F
S9030000FC
